:020000040800F2
:1000000000C00020450B00085D0A00085F0A0008D8
:10001000610A0008630A0008650A00080000000081
:10002000000000000000000000000000670A000857
:10003000690A0008000000006B0A00086D0A000849
:100040008D0B00088D0B00088D0B00088D0B000830
:100050008D0B00088D0B00088D0B00088D0B000820
:100060008D0B00088D0B00088D0B0008750A000829
:100070008D0B0008850A00088D0B00088D0B000809
:100080008D0B00088D0B00088D0B00088D0B0008F0
:100090008D0B00088D0B00088D0B00088D0B0008E0
:1000A0008D0B00088D0B00088D0B00088D0B0008D0
:1000B0008D0B00088D0B00088D0B00088D0B0008C0
:1000C0008D0B00088D0B00088D0B00088D0B0008B0
:1000D0008D0B00088D0B00088D0B00088D0B0008A0
:1000E0008D0B00088D0B00088D0B00088D0B000890
:1000F0008D0B00088D0B00088D0B00088D0B000880
:100100008D0B00088D0B00088D0B00088D0B00086F
:100110008D0B00088D0B00088D0B00088D0B00085F
:100120008D0B00088D0B00088D0B00088D0B00084F
:1001300000000000000000000000000000000000BF
:1001400000000000000000000000000000000000AF
:10015000000000000000000000000000000000009F
:10016000000000000000000000000000000000008F
:10017000000000000000000000000000000000007F
:10018000000000000000000000000000000000006F
:10019000000000000000000000000000000000005F
:1001A000000000000000000000000000000000004F
:1001B000000000000000000000000000000000003F
:1001C000000000000000000000000000000000002F
:1001D000000000000000000000000000000000001F
:0401E0005FF8E0F1F3
:1001E40010B5054C237833B9044B13B10448AFF36D
:1001F40000800123237010BD3C0400200000000097
:100204003827000808B5034B1BB103490348AFF373
:10021400008008BD000000004004002038270008CA
:1002240000B585B000230193029303934C484D4AD3
:1002340002604FF4807282600122027303754FF4EE
:100244006022C26143600A23036100F0B7FD002805
:1002540065D100230193012302930723039301A98A
:100264003F4800F0DDFC00285CD101230193022308
:10027400029301A93A4800F0D3FC002855D10A237F
:1002840001930323029301A9354800F0C9FC002817
:100294004ED10B230193042302930DEB0301304849
:1002A40000F0BEFC002846D10823019305230293E5
:1002B40001A92B4800F0B4FC00283FD10923019385
:1002C4000623029301A9264800F0AAFC002838D18D
:1002D4000E2301930723029301A9214800F0A0FCF7
:1002E40090BB0F2301930823029301A91C4800F03B
:1002F40097FC60BB0C2301930923029301A91848BE
:1003040000F08EFC30BB0D2301930A23029301A954
:10031400134800F085FC00BB05B05DF804FB00F059
:100324009BF996E700F098F99FE700F095F9A6E7A6
:1003340000F092F9ADE700F08FF9B5E700F08CF921
:10034400BCE700F089F9C3E700F086F9C9E700F0DB
:1003540083F9CFE700F080F9D5E700F07DF9DBE71A
:10036400580400200024014030B589B000230493D0
:1003740005930693079302682E4B9A4201D009B065
:1003840030BD044603F56C439A6942F400729A61E5
:100394009A6902F400720092009A9A6942F010027B
:1003A4009A619A6902F010020192019A9A6942F0E4
:1003B40004029A619A6902F004020292029A9A690A
:1003C40042F008029A619B6903F008030393039BBC
:1003D4003F2304930325059504A9174800F0B0FFB3
:1003E4000495059504A9154800F0AAFF0495059500
:1003F40004A9134800F0A4FF1248134B0360002320
:10040400436083608023C3604FF4007303614FF43F
:1004140000634361202383614FF40053C36100F000
:10042400CDFD18B9074B23625C62A8E700F014F90C
:10043400F8E700BF0024014000100140000801401B
:10044400000C0140880400200800024000B583B07D
:100454000E4B5A6942F001025A615B6903F00103D1
:100464000193019B002211460B2000F04DFD0B204F
:1004740000F082FD002211460D2000F045FD0D2004
:1004840000F07AFD03B05DF804FB00BF00100240E9
:100494002DE9F04188B0002404940594069407944F
:1004A4003C4B9A6942F010029A619A6902F0100278
:1004B4000092009A9A6942F020029A619A6902F0C5
:1004C40020020192019A9A6942F004029A619A699F
:1004D40002F004020292029A9A6942F008029A61B6
:1004E4009B6903F008030393039B2B4E22464FF4AE
:1004F4008E71304601F044F8DFF8A08022464FF4B4
:10050400C051404601F03CF801224FF40841304606
:1005140001F036F84FF48E73049301250595069483
:100524000227079704A9304600F00AFF4FF48063BE
:1005340004930594069504A9404600F001FF4FF486
:10054400C053049305950694079704A9404600F008
:10055400F7FE4FF4707304930594069504A91048AC
:1005640000F0EEFE4FF4006304930595069507979B
:1005740004A9304600F0E4FE4FF4004304930595CB
:1005840006950323079304A9304600F0D9FE08B06A
:10059400BDE8F0810010024000080140000C014059
:1005A4000010014008B50B480B4B03600B4B436034
:1005B40000238360C3604FF480420261436183611E
:1005C400C361036200F0E2FF00B908BD00F044F823
:1005D400FBE700BFCC04002000540040A0860100CB
:1005E40010B586B000230293039304930593026825
:1005F400154B9A4201D006B010BD144CA36943F0C8
:100604000803A361A36903F008030093009B4FF45C
:1006140040730293122303930323059302A90C4806
:1006240000F08EFE0B4A536843F0E06343F002038C
:100634005360E36943F40013E361E36903F40013D3
:100644000193019BD7E700BF005400400010024013
:10065400000C01400000014072B6FEE700B597B0FF
:10066400282200210CA801F0A3FF0023079308937C
:1006740009930A930B9301930293039304930593B1
:10068400069305230C934FF480330D9301220F92AC
:1006940010920222139214934FF4E01315930CA8B2
:1006A40001F06EF8E0B90F230793022108910023AB
:1006B40009934FF480620A920B9307A801F092FA0F
:1006C40080B9032301934FF4807302934FF40043E2
:1006D400039301A801F062FB30B917B05DF804FB85
:1006E400FFF7BAFFFFF7B8FFFFF7B6FF08B500F052
:1006F40073FAFFF7B3FFFFF7CBFEFFF7A7FE00F097
:100704006DF800F0AFF8FFF78BFD00F089F8FFF704
:1007140049FF00F003F800F0BDF9FEE700B583B02F
:100724000023ADF804308DF80630009319481A4BB5
:1007340003604FF0FF3343604FF48073836001F034
:10074400E5FDF0B900238DF804308DF805308DF8FF
:100754000630012201A90F4801F0F1FCA0B90122E1
:100764008DF800208DF801208DF8022025238DF8C6
:1007740003306946074801F043FD40B903B05DF812
:1007840004FBFFF769FFDDE7FFF766FFE7E7FFF725
:1007940063FFF3E7200500200028004002680C4BAB
:1007A4009A4200D0704700B583B000F0CDFF094BEA
:1007B400DA6942F00062DA61DB6903F000630193F5
:1007C400019B054B0122C3F83C2403B05DF804FBF4
:1007D40000280040001002400000424208B50E48C4
:1007E4000E4B03604FF48273436000238360C36045
:1007F400036143614FF4007282611822C261036293
:10080400436283620A23C36201F0D8FD00B908BDC4
:10081400FFF722FFFBE700BF78050020003001400E
:1008240008B50E480E4B03604FF4827343600023F7
:100834008360C360036143614FF4007282611022DC
:10084400C2610362436283620A23C36201F0B6FD9C
:1008540000B908BDFFF700FFFBE700BFD00500208B
:100864000038004008B50F480F4B03604FF4827303
:10087400436000238360C36002220261012242615B
:100884004FF4007282611022C26103624362836288
:100894000A23C36201F092FD00B908BDFFF7DCFE34
:1008A400FBE700BF28060020003C004070B58AB07A
:1008B4000023069307930893099303684D4A9342D0
:1008C40007D04D4A934242D04C4A934269D00AB071
:1008D40070BD04464A4B9A6942F480529A619A69FF
:1008E40002F480520092009A9A6942F004029A61DA
:1008F4009B6903F004030193019BA0230693022345
:100904000793032309933F4E06A9304600F018FDD0
:100914004023069300250795089506A9304600F064
:100924000FFD3948394B03601023436085608023F1
:10093400C360056145618561C56100F03FFB18B97D
:10094400314BA3645C62C2E7FFF786FEF8E72C4BE9
:10095400DA6942F48042DA61DA6902F4804202928E
:10096400029A9A6942F008029A619B6903F00803AB
:100974000393039B4FF4204306930223079303231B
:100984000993234C06A9204600F0DAFC4FF4804377
:10099400069300230793089306A9204600F0D0FC91
:1009A40095E7174BDA6942F40042DA61DA6902F436
:1009B40000420492049A9A6942F008029A619B697F
:1009C40003F008030593059B28230693022307934A
:1009D400032309930E4C06A9204600F0B1FC102312
:1009E400069300230793089306A9204600F0A8FC69
:1009F4006DE700BF0030014000380040003C00407B
:100A0400001002400008014034050020300002407C
:100A1400000C014082B00E4B9A6942F001029A61C7
:100A24009A6902F001020092009ADA6942F0805257
:100A3400DA61DB6903F080530193019B054A536833
:100A440023F0E06343F00073536002B0704700BFCB
:100A54000010024000000140FEE7FEE7FEE7FEE76B
:100A6400FEE770477047704708B500F0C7F808BD47
:100A740008B5024800F0EEFA08BD00BF8804002063
:100A840008B5024800F0E6FA08BD00BF34050020AE
:100A94007047000008B50A480A4B03604FF4E1337D
:100AA400436000238360C36003610C22426183615D
:100AB400C36101F029FD00B908BDFFF7CDFDFBE7D7
:100AC400800600200038014010B586B00023029350
:100AD4000393049305930268174B9A4201D006B01E
:100AE40010BD03F558439A6942F480429A619A69A9
:100AF40002F480420092009A9A6942F004029A61D8
:100B04009B6903F004030193019B4FF40073029368
:100B14000223039303230593084C02A9204600F003
:100B24000FFC4FF48063029300230393049302A900
:100B3400204600F005FCD2E70038014000080140DF
:100B4400FFF7A6FF0B480C490C4A002302E0D458D7
:100B5400C4500433C4188C42F9D3094A094C002305
:100B640001E013600432A242FBD301F0FDFCFFF765
:100B7400BDFD7047000000203C040020A0270008B1
:100B84003C040020D0060020FEE7000010B5044617
:100B94000E4B18784FF47A73B3FBF0F30C4A1068D9
:100BA400B0FBF3F000F0F6F968B90F2C01D901207D
:100BB4000AE0002221464FF0FF3000F0A5F9054B72
:100BC4001C60002000E0012010BD00BF04000020D4
:100BD400000000200800002008B5074A136843F00D
:100BE40010031360032000F07DF90F20FFF7CEFF00
:100BF400FFF710FF002008BD00200240034A1168DF
:100C0400034B1B780B441360704700BFC8060020D9
:100C140004000020014B1868704700BFC80600207C
:100C240030B482B00022019290F82420012A00F00E
:100C340091800346012280F824204A68062A2DD890
:100C44000468606B02EB8202053A4FF01F0C0CFA49
:100C540002FC20EA0C000D6805FA02F2024362630A
:100C64000A68092A3AD91C68E06802EB42021E3A73
:100C74004FF0070C0CFA02FC20EA0C008D6805FA10
:100C840002F20243E2600A68103A012A36D90020CF
:100C9400002283F8242002B030BC70470C2A0ED8FE
:100CA4000568286B02EB8202233A1F24944020EA51
:100CB40004000C6804FA02F202432A63D0E70568D0
:100CC400E86A02EB8202413A1F24944020EA0400BD
:100CD4000C6804FA02F20243EA62C1E71C68206964
:100CE40002EB42024FF0070C0CFA02FC20EA0C0063
:100CF4008D6805FA02F202432261C4E71A681648B5
:100D0400824205D09A6A42F020029A620120BFE72B
:100D1400906810F4000F1BD1906840F400009060BC
:100D24000A68102A01D00020B2E70C4A12680C4964
:100D3400A1FB0212920C02EB82025200019202E029
:100D4400019A013A0192019A002AF9D100209FE701
:100D540000209DE702209EE70024014000000020BF
:100D640083DE1B4338B503689A6812F0010F01D182
:100D7400002038BD04469A6822F001029A60FFF709
:100D840049FF054623689B6813F0010F13D0FFF752
:100D940041FF431B022BF5D923689B6813F0010F15
:100DA400F0D0A36A43F01003A362E36A43F00103A3
:100DB400E3620120DDE70020DBE70000002800F00B
:100DC400888070B50446836A002B52D02046FFF712
:100DD400C9FFA36A13F0100375D1002873D1A26A66
:100DE40022F4885222F0020242F00202A2626268F5
:100DF400266839498E4242D0E1690A43217B42EA9E
:100E04004102A568B5F5807F02D0012D3ED01D4674
:100E140094F814C0BCF1010F3BD0716821F469410E
:100E2400294371602568AE682C4931401143A9609B
:100E3400A168B1F5807F01D0012902D12369013B6A
:100E44001B052568E96A21F470010B43EB622368F2
:100E54009968234B0B409A422CD0A36A23F01203C7
:100E640043F01003A362E36A43F00103E362012049
:100E74002EE0C36280F82430FFF776FAA6E7E16932
:100E8400B1F5402FB9D14FF40021B6E74FF4807586
:100E9400BEE731B9A169013945EA413141F4006540
:100EA400BBE7A16A41F02001A162E16A41F00101BE
:100EB400E162B2E70023E362A36A23F0030343F091
:100EC4000103A36204E0A36A43F01003A3620120B8
:100ED40070BD0120704700BF003C0140FDF7E1FFF9
:100EE400FE0E1FFF074AD36823F4E0631B041B0CA8
:100EF400000200F4E060034343F0BF6343F40033B3
:100F0400D360704700ED00E000B5194BDB68C3F314
:100F14000223C3F1070CBCF1040F28BF4FF0040CEB
:100F240003F1040EBEF1060F18D9033B4FF0FF3E48
:100F34000EFA0CFC21EA0C0199400EFA03F322EAA2
:100F44000303194300280BDB0901C9B200F1604017
:100F540000F5614080F800135DF804FB0023E5E729
:100F640000F00F000901C9B2024B1954F4E700BFA5
:100F740000ED00E014ED00E0002807DB00F01F02A4
:100F8400400901239340024A42F82030704700BFD1
:100F940000E100E00138B0F1807F0BD24FF0E02394
:100FA4005861054AF02182F8231000209861072235
:100FB4001A6170470120704700ED00E000283AD024
:100FC40010B4024600681D4B984229D81C4B0344B8
:100FD4001C49A1FB03131B099B0013641A4BD36325
:100FE400022382F82130016821F47F5121F030017D
:100FF400536894682343D46823431469234354698E
:10100400234394692343D46923430B43036000209F
:101014009063012382F8213082F8200010BC7047CD
:101024000A4B03440749A1FB03131B099B001364E8
:10103400074BD363D4E70120704700BF0704024085
:10104400F8FFFDBFCDCCCCCC00000240F8FBFDBFC7
:101054000004024038B5C36B1A6804682568016C43
:1010640004238B40134200F09B8015F0040F00F022
:101074009780236813F0200F03D1236823F004031F
:10108400236003689A4A934246D9783A934224D01B
:101094001432934228D01432934227D0143293420C
:1010A40027D01432934227D01432934227D01432DB
:1010B400934227D002F56272934226D014329342AF
:1010C40025D01432934224D01432934202D04FF4E8
:1010D400802203E04FF4804200E00422854B5A60F2
:1010E400C36A03B1984738BD4022F7E74FF48062E2
:1010F400F4E74FF48042F1E74FF48022EEE74FF437
:101104008002EBE74FF08062E8E70422E6E7402242
:10111400E4E74FF48062E1E7774A934224D0143243
:10112400934225D01432934224D01432934224D0D3
:101134001432934224D01432934224D01432934272
:1011440024D002F56272934223D01432934222D007
:101154001432934221D01432934202D04FF48022AD
:1011640003E04FF4804200E00422644B5A60B7E786
:101174004022FAE74FF48062F7E74FF48042F4E745
:101184004FF48022F1E74FF48002EEE74FF08062E3
:10119400EBE70422E9E74022E7E74FF48062E4E763
:1011A40002238B40134200F0AB8015F0020F00F0D5
:1011B400A780236813F0200F06D1236823F00A03C5
:1011C4002360012380F821300368494A93424BD9B4
:1011D400783A934224D0143293422DD0143293425D
:1011E4002CD0143293422CD0143293422CD014328B
:1011F40093422CD0143293422CD002F56272934263
:101204002BD0143293422AD01432934229D0143270
:10121400934202D04FF4003203E04FF4005200E056
:101224000222344B5A60002380F82030836A002B5A
:101234003FF459AF984756E72022F2E74FF4007283
:10124400EFE74FF40052ECE74FF40032E9E74FF4D4
:101254000012E6E74FF00072E3E70222E1E7202202
:10126400DFE74FF40072DCE7234A934224D01432C0
:10127400934225D01432934224D01432934224D082
:101284001432934224D01432934224D01432934221
:1012940024D002F56272934223D01432934222D0B6
:1012A4001432934221D01432934202D04FF40032CC
:1012B40003E04FF4005200E00222104B5A60B2E700
:1012C4002022FAE74FF40072F7E74FF40052F4E7F4
:1012D4004FF40032F1E74FF40012EEE74FF00072E2
:1012E400EBE70222E9E72022E7E74FF40072E4E7A4
:1012F4008000024000040240080002400000024056
:10130400082303FA01F111423FF4EDAE15F0080F82
:101314003FF4E9AE236823F00E032360026CC16B33
:10132400012303FA02F24A60836380F82130002328
:1013340080F82030036B002B3FF4D5AE9847D2E6FB
:1013440070B582B00024A446B0E0874DAA4210D004
:1013540007D9864DAA420CD005F58035AA4208D09B
:1013640013E0A5F58015AA4203D005F57025AA421D
:1013740007D18A68002A62D0012A5BD0436108241D
:1013840003E0A5F58015AA42F3D0BEF1FF0F58D8AB
:101394000646BEF1FF0F56D84FEA8C0233680F257C
:1013A400954023EA050304FA02F2134333604B68C1
:1013B40013F0805F78D06E4B9A6942F001029A6113
:1013C4009B6903F001030193019B4FEA9C02951C66
:1013D400684B53F825600CF003039D000F23AB40CA
:1013E40026EA0306644B984233D003F5806398429F
:1013F40000F0988003F58063984200F0958003F52F
:101404008063984200F0928003F58063984200F074
:101414008F8003F58063984219D006231AE0CC68C4
:10142400B3E7CC680434B0E7CC680834ADE7CC68E3
:101434000C34AAE703610824A7E70024A5E70424E1
:10144400A3E7061DA5E7ACF108029200A6E7052371
:1014540000E00023AB4033430232464D45F82230CE
:101464004B6813F4801F65D0444A936843EA0E0323
:1014740093604B6813F4001F62D0404AD36843EA78
:101484000E03D3604B6813F4003F5FD03B4A5368AC
:1014940043EA0E0353604B6813F4803F5CD0374A31
:1014A400136843EA0E0313600CF1010C0A6832FA64
:1014B4000CF357D0012303FA0CF302EA030E33EAC8
:1014C4000202F1D14A68122A3FF63FAF122A3FF6D0
:1014D4005CAF01A555F822F0771300082314000827
:1014E4002D1400083F1400088F1300088F13000800
:1014F4008F1300088F1300088F1300088F13000840
:101504008F1300088F1300088F1300088F1300082F
:101514008F1300088F1300088F1300082714000886
:1015240033140008012395E7022393E7032391E78B
:1015340004238FE7114A936823EA0E03936098E724
:101544000E4AD36823EA0E03D3609BE70B4A536821
:1015540023EA0E0353609EE7084A136823EA0E0346
:101564001360A1E702B070BD00002210000031102A
:101574000010024000000140000801400004014046
:101584000AB101617047090401617047002800F045
:10159400CC8070B5044690F83D30002B77D02423DE
:1015A40084F83D302268136823F001031360226835
:1015B400136843F4004313602268136823F4004360
:1015C400136000F0CBFB62685A4B9A4264D85A4BC2
:1015D40098428CBF00230123002B40F0A880574978
:1015E400A1FB00318B0C25686A6822F03F0242EAB5
:1015F40091426A6021680A6A22F03F0266684D4D92
:10160400AE424FD8013313430B622168CA6922F4F6
:101614004F4222F0FF026668464B9E424CD8431E5E
:101624007600B3FBF6F3013340F6FC70034278D046
:10163400C3F30B031343CB6121680B6823F0C0038E
:10164400E269206A024313430B6021688B6823F428
:10165400034323F0FF032269E068024313438B60D2
:101664002168CB6823F0FF036269A0690243134336
:10167400CB602268136843F00103136000202064E8
:10168400202384F83D30206384F83E0070BD80F848
:101694003C30FEF7A5FF82E7294B98428CBF00231C
:1016A400012399E74FF4967505FB03F3254DA5FB3C
:1016B40003539B090133A6E7A368BBB9451E06EB98
:1016C400460CB5FBFCF50135C5F30B05B5FA85F5FC
:1016D4006D0945BBC3B9013806EB4603B0FBF3F310
:1016E4000133C3F30B0343F40043A3E7451E06EBA6
:1016F400860C0CEB8C0CB5FBFCF50135C5F30B0526
:10170400B5FA85F56D09E4E7013806EB860303EBCA
:101714008303B0FBF3F30133C3F30B0343F44043FC
:1017240088E7042386E7012384E70120704701202A
:10173400ACE700BFA08601007F841E0083DE1B434C
:10174400FF083D00D34D6210014B01221A6270471D
:1017540000000E4282B0084B1B68084AA2FB032318
:101764005B0A00FB03F3019300BF019B5A1E019225
:10177400002BF9D102B0704700000020D34D621055
:10178400002800F0F18170B582B00446036813F0BC
:10179400010F2CD0994B5B6803F00C03042B1DD074
:1017A400964B5B6803F00C03082B12D06368B3F507
:1017B400803F41D0002B55D103F1804303F504331E
:1017C4001A6822F480321A601A6822F480221A609D
:1017D40037E08A4B5B6813F4803FE7D0874B1B6884
:1017E40013F4003F03D06368002B00F0BF8123682B
:1017F40013F0020F75D0814B5B6813F00C0F5FD0B0
:101804007E4B5B6803F00C03082B54D02369002B38
:1018140000F08A807A4B01221A60FFF7FBF9054633
:10182400764B1B6813F0020F75D1FFF7F3F9401BD9
:101834000228F5D903209EE1704A136843F48033EB
:101844001360636843B3FFF7E5F905466B4B1B6808
:1018540013F4003FCBD1FFF7DDF9401B6428F5D921
:10186400032088E1B3F5A02F09D0644B1A6822F451
:1018740080321A601A6822F480221A60E1E703F1C8
:101884008043A3F53C331A6842F480221A601A6834
:1018940042F480321A60D4E7FFF7BCF90546574B8F
:1018A4001B6813F4003FA2D0FFF7B4F9401B64286F
:1018B400F5D903205FE1514B5B6813F4803FA5D158
:1018C4004E4B1B6813F0020F03D02369012B40F029
:1018D4004F814A4A136823F0F803616943EAC1035C
:1018E4001360236813F0080F33D0A369002B5CD076
:1018F400434B0122C3F88024FFF78CF905463F4B84
:101904005B6A13F0020F21D1FFF784F9401B022810
:10191400F5D903202FE1394A136823F0F8036169EC
:1019240043EAC1031360DCE7354B00221A60FFF77A
:1019340071F90546314B1B6813F0020FD1D0FFF744
:1019440069F9401B0228F5D9032014E10120FFF7AF
:1019540001FF236813F0040F00F09680274BDB6926
:1019640013F0805F34D1254BDA6942F08052DA619A
:10197400DB6903F080530193019B0125214B1B6814
:1019840013F4807F26D0E368012B3DD0002B53D184
:1019940003F1804303F504331A6A22F001021A6248
:1019A4001A6A22F004021A6233E0154B0022C3F8CB
:1019B4008024FFF72FF90546104B5B6A13F0020FE2
:1019C400C7D0FFF727F9401B0228F5D90320D2E03E
:1019D4000025D3E70B4A136843F480731360FFF7C1
:1019E40019F90646074B1B6813F4807FCBD1FFF728
:1019F40011F9801B6428F5D90320BCE000100240D3
:101A040000004242007000405F4A136A43F0010341
:101A14001362E36833B3FFF7FDF806465A4B1B6ABB
:101A240013F0020F2FD1FFF7F5F8801B41F2883332
:101A34009842F3D903209EE0052B09D0524B1A6A31
:101A440022F001021A621A6A22F004021A62E0E722
:101A54004D4B1A6A42F004021A621A6A42F00102F9
:101A64001A62D6E7FFF7D6F80646474B1B6A13F00F
:101A7400020F08D0FFF7CEF8801B41F2883398425A
:101A8400F3D9032077E0E5B9E369002B72D03E4A2D
:101A9400526802F00C02082A56D0022B17D03B4B96
:101AA40000221A66FFF7B6F80446374B1B6813F09A
:101AB400007F47D0FFF7AEF8001B0228F5D90320BA
:101AC40059E0314AD36923F08053D361DCE72F4BCB
:101AD40000221A66FFF79EF805462B4B1B6813F08D
:101AE400007F06D0FFF796F8401B0228F5D90320A3
:101AF40041E0236AB3F5803F1AD023494B6823F4AD
:101B04007413226A606A024313434B601F4B012221
:101B14001A66FFF77FF804461B4B1B6813F0007F1F
:101B24000ED1FFF777F8001B0228F5D9032022E035
:101B3400154A536823F40033A1680B435360DCE770
:101B4400002018E0002016E0012B16D00E4B5B6835
:101B540003F48031226A914211D103F47013626A52
:101B640093420ED1002006E001207047012002E0DC
:101B7400012000E0002002B070BD0120FBE701203D
:101B8400F9E70120F7E700BF0010024000004242DD
:101B94000F4B5B6803F00C02082A01D00D48704714
:101BA400C3F383420C49885C13F4803F0BD0084B89
:101BB4005B68C3F34043094AD35C064A02FB00F066
:101BC400B0FBF3F07047064B03FB00F0704700BF17
:101BD4000010024000127A006827000878270008E5
:101BE40000093D00002800F0A08070B50D460446B1
:101BF400524B1B6803F007038B420BD24F4A136806
:101C040023F007030B431360136803F007038B42AD
:101C140040F08D80236813F0020F17D013F0040FE7
:101C240004D0474A536843F4E0635360236813F0D5
:101C3400080F04D0424A536843F460535360404A47
:101C4400536823F0F003A1680B435360236813F037
:101C5400010F31D06368012B20D0022B25D0384AE4
:101C6400126812F0020F64D035494A6822F0030268
:101C740013434B60FEF7CEFF0646314B5B6803F01F
:101C84000C036268B3EB820F16D0FEF7C3FF801B10
:101C940041F288339842F0D9032045E0284A12687B
:101CA40012F4003FE0D101203EE0254A126812F010
:101CB400007FD9D1012037E0204B1B6803F00703D4
:101CC400AB420AD91D4A136823F007032B43136060
:101CD400136803F00703AB422DD1236813F0040FFC
:101CE40006D0174A536823F4E063E1680B4353605A
:101CF400236813F0080F07D0114A536823F4605384
:101D0400216943EAC1035360FFF742FF0C4B5B6850
:101D1400C3F303130B4AD35CD8400B4B18600B4B33
:101D24001868FEF733FF002070BD012070470120C2
:101D3400FAE70120F8E70120F6E700BF002002409F
:101D44000010024050270008000000200800002076
:101D5400014B1868704700BF0000002008B5FFF76A
:101D6400F7FF044B5B68C3F30223034AD35CD840F8
:101D740008BD00BF001002406027000808B5FFF747
:101D8400E7FF044B5B68C3F3C223034AD35CD84028
:101D940008BD00BF001002406027000870B582B083
:101DA4000446036813F0010F36D03F4BDB6913F090
:101DB400805F49D13C4BDA6942F08052DA61DB69D9
:101DC40003F080530193019B0125384B1B6813F4E6
:101DD400807F3BD0344B1B6A13F4407313D062688A
:101DE40002F440729A420ED02F4A136A23F44070D0
:101DF4002F490126C1F840640026C1F840641062EE
:101E040013F0010F36D1284A136A23F44073616832
:101E14000B431362002D3ED1236813F0020F06D04A
:101E2400214A536823F44043A1680B435360236859
:101E340013F0100F34D01C4A536823F480036169F3
:101E44000B43536000202CE00025BEE7174A1368BB
:101E540043F480731360FEF7DDFE0646134B1B68E4
:101E640013F4807FB6D1FEF7D5FE801B6428F5D924
:101E7400032016E0FEF7CEFE06460B4B1B6A13F05A
:101E8400020FC0D1FEF7C6FE801B41F28833984290
:101E9400F3D9032005E0D36923F08053D361BBE772
:101EA400002002B070BD00BF00100240007000406E
:101EB4000000424208B501380F2863D8DFE800F07B
:101EC4003557622F626262326262626262626208E3
:101ED4002F4B5A68186810F0807054D0C2F38343B3
:101EE4002C49C85C12F4803F15D0294B5B68C3F3BE
:101EF4004043294AD25C294BB3FBF2F303FB00F0C5
:101F0400234B5B6813F4800F3DD14000244BA3FBAB
:101F14000030400837E0234B03FB00F0F0E7FFF705
:101F240037FE30E0FFF734FE2DE0194B1B6A40F218
:101F340002321A40B2F5817F26D003F44073B3F520
:101F4400007F04D0B3F5407F09D000201BE0104A85
:101F5400526A12F0020FF5D049F6404013E00C4BE0
:101F6400186810F400300ED04FF224400BE0FFF755
:101F740005FF074B5B68C3F3813301335B00B0FBA0
:101F8400F3F000E0002008BD4FF40040FBE700BF81
:101F9400001002407C2700088C27000800127A00F9
:101FA400ABAAAAAA00093D0010B4026894691FFAFA
:101FB40084FCD369916988B2844505D0D06980B224
:101FC40040EA014010BC704798B240EA0440F9E787
:101FD4000368186A5B6A9BB243EA004070470309CE
:101FE40003EB830300F00F0000EB4300C0B2704723
:101FF40000F5FA6C022921D801EB4103C1EBC301BE
:102004001E4BA3FB011302EB5303634400F2CF7096
:1020140003EB90031A4AA2FB0020A3EB501303EB3B
:10202400D01304331748A0FB03201A1A00EB520004
:102034008008C0EBC000181AC0B2704701EB41031E
:10204400C1EBC3010D4BA3FB011302EB5303634428
:1020540003EB9C030A4AA2FB0C2CA3EB5C1303EBDB
:10206400DC1302330748A0FB03201A1A00EB5200CA
:102074008008C0EBC000181ADEE700BF398EE338D1
:102084001F85EB512549922438B50446FEF7C2FD5D
:10209400054623685A6812F0200F07D1FEF7BAFDEF
:1020A400401BB0F57A7FF4D9032004E05A6842F06B
:1020B40010025A60002038BD38B5044602685368DF
:1020C40023F010035360FEF7A5FD054623685B6803
:1020D40013F0200F07D1FEF79DFD401BB0F57A7F6A
:1020E400F4D9032000E0002038BD38B505460C467D
:1020F400FFF7CAFF08B1012038BD2B68220C9A6192
:102104002B68A4B2DC612846FFF7D6FF0028F3D081
:102114000120F1E738B505460C46FFF7B5FF08B1D5
:10212400012038BD2B68220C1A622B68A4B25C62B1
:102134002846FFF7C1FF0028F3D00120F1E770B56E
:10214400002857D00D460646002955D0037C012BA4
:1021540054D00123037402234374BAB908784B782A
:10216400C3EB03139C004FF4616303FB00448878C2
:10217400044421463046FFF7B8FF0546C8B104239E
:102184007374002333740125284670BD0878FFF763
:1021940026FF4FF4616400FB04F46878FFF71FFF27
:1021A400C0EB001004EB8004A878FFF718FF044488
:1021B400DFE73268536823F0050353603046FFF7C6
:1021C40007FFB0F1FF3F01D0844204D801237374A8
:1021D40000233374D8E700F5A83101F5C071304607
:1021E400FFF798FF0028F1D004237374002333749D
:1021F4000125C9E70125C7E70125C5E70225C3E78E
:1022040000285AD038B50D460446002957D0037C1F
:10221400012B56D00123037402234374BAB9CB783B
:10222400C3734B7843738B788373A27B617BE07BAE
:10223400FFF7DEFE207328702046FFF7B5FE224B21
:10224400984211D8012363740020207438BDC878E3
:10225400FFF7C5FEE0736878FFF7C1FE6073A878E6
:10226400FFF7BDFEA073E0E7184DA5FB00352D0C6C
:10227400174B03FB150529462046FFF736FF28B107
:1022840004236374002323740120DFE72046FFF74F
:102294009FFEB0F1FF3FD5D08542D3D900F5A831D8
:1022A40001F5C0712046FFF735FF0028CAD004238A
:1022B4006374002323740120C8E7012070470120C0
:1022C400C4E70220C2E700BF8F5F010007452EC2AA
:1022D40080510100C0B138B505460268536823F047
:1022E40008035360FEF796FC04462B685B6813F002
:1022F400080F07D1FEF78EFC001BB0F57A7FF4D9E6
:10230400032000E0002038BD01207047002850D091
:1023140010B50446437C4BB1022363742046FFF797
:10232400D9FF38B104236374012010BD0374FEF790
:1023340035FAF1E72046FFF7A7FE28BB2268536869
:1023440023F007035360A36823B11B4A136B23F0E4
:1023540001031363184AD36A23F46073A1680B431F
:10236400D3626368B3F1FF3F12D02268C3F3034121
:10237400916022689BB2D3602046FFF79DFE88B12E
:10238400042363740120D0E7042363740120CCE7A1
:102394000120FFF78FFD08B1431EE6E704236374B1
:1023A4000120C2E70023E37301236373A3736374FF
:1023B400BBE70120704700BF006C0040002856D0E6
:1023C40010B50446436A33B94368B3F5827F05D038
:1023D4000023C36102E00023036143610023A3627D
:1023E40094F85130002B3CD0022384F851302268F9
:1023F400136823F040031360636803F48273A268D4
:1024040002F404421343E26802F4006213432269B3
:1024140002F002021343626902F001021343A2694B
:1024240002F400721343E26902F038021343226A91
:1024340002F080021343A26A02F40052216813439B
:102444000B60638B226803F0040353602268D36932
:1024540023F40063D36100206065012384F85130C4
:1024640010BD84F850302046FEF720FABCE7012066
:102474007047000010B504460268136923F4405302
:10248400C1680B43136183680269134342691A43A9
:102494000168CB6823F4B05323F00C031343CB60DF
:1024A4000268536923F4407381690B4353610268E2
:1024B400134B9A4220D0FFF751FC024602EB8202F2
:1024C40002EB820263689B00B2FBF3F20D48A0FBAF
:1024D40002314909642303FB11231B013233A0FB9E
:1024E40003235B0903F0F00202EB011203F00F0374
:1024F400216813448B6010BDFFF740FC0246DDE702
:10250400003801401F85EB5160B310B5044690F8C4
:10251400413013B3242384F841302268D36823F470
:102524000053D3602046FFF7A5FF2268136923F404
:10253400904313612268536923F02A03536122688C
:10254400D36843F40053D36000206064202384F8EC
:10255400413084F84230606310BD80F84030FEF7AB
:10256400B3FAD7E70120704770B50D4E0D4D761BB9
:10257400B61006D0002455F8043B01349847A6420F
:10258400F9D1094E094D00F0D5F8761BB61006D0E6
:10259400002455F8043B01349847A642F9D170BD94
:1025A40094270008942700089C2700089427000813
:1025B400830730B548D0541E002A3FD00346CAB220
:1025C40001E0013C3AD303F8012B9D07F9D1032C18
:1025D4002DD9CDB245EA05250F2C45EA054536D956
:1025E400A4F1100222F00F0C03F1200EE6444FEA8E
:1025F400121C03F1100242E9045542E9025510325B
:102604007245F8D10CF1010214F00C0F03EB021225
:1026140004F00F0C13D0ACF1040323F003030433D0
:10262400134442F8045B9342FBD10CF003042CB135
:10263400CAB21C4403F8012B9C42FBD130BD644652
:102644001346002CF4D1F9E703461446BFE71A46B3
:10265400A446E0E7024B13B1024800F005B8704706
:102664000000000079260008002301461A46184697
:1026740000F01AB838B5084B084D5B1B9C1007D006
:10268400043B1D44013C55F804399847002CF9D10A
:10269400BDE8384000F054B8A02700089C27000883
:1026A400704700BF704700BF2DE9F047DFF87CA0FA
:1026B4000646DAF8000098460F469146FFF7F0FF09
:1026C4001B4B1B68D3F8484124B365681F2D26DCD7
:1026D4005EB96B1C0235DAF80000636044F82570BB
:1026E400FFF7E0FF0020BDE8F087012304EB85013C
:1026F400C1F88890D4F88821AB401A43022EC4F85C
:102704008821C1F80881E4D1D4F88C211343C4F89A
:102714008C31DEE703F5A674C3F84841D5E7DAF84F
:102724000000FFF7BFFF4FF0FF30DCE73804002064
:1027340090270008F8B500BFF8BC08BC9E46704757
:0C274400F8B500BFF8BC08BC9E4670470A
:102750000000000000000000010203040607080951
:102760000000000001020304020304050607080933
:102770000A0B0C0D0E0F10100102000002030405DD
:10278000060708090A0B0C0D0E0F101001020000BD
:042790001000002015
:082794005926000809020008A3
:04279C00E50100084B
:1027A00000127A000100000010000000000000008C
:1027B00000000000FC02002064030020CC03002085
:1027C0000000000000000000000000000000000009
:1027D00000000000000000000000000000000000F9
:1027E00000000000000000000000000000000000E9
:1027F00000000000000000000000000000000000D9
:1028000000000000000000000000000000000000C8
:1028100000000000000000000000000000000000B8
:1028200000000000000000000000000000000000A8
:102830000000000000000000000000000000000098
:102840000000000000000000000000000000000088
:102850000000000000000000010000000000000077
:102860000E33CDAB34126DE6ECDE05000B0000003C
:102870000000000000000000000000000000000058
:102880000000000000000000000000000000000048
:102890000000000000000000000000000000000038
:1028A0000000000000000000000000000000000028
:0C2BD0000000000000000000CC06002007
:0400000508000B459F
:00000001FF
